{
  "contractName": "Evi",
  "abi": [
    {
      "constant": true,
      "inputs": [],
      "name": "paid",
      "outputs": [
        {
          "name": "",
          "type": "bool"
        }
      ],
      "payable": false,
      "stateMutability": "view",
      "type": "function"
    },
    {
      "constant": true,
      "inputs": [],
      "name": "startingTime",
      "outputs": [
        {
          "name": "",
          "type": "uint256"
        }
      ],
      "payable": false,
      "stateMutability": "view",
      "type": "function"
    },
    {
      "constant": true,
      "inputs": [],
      "name": "insuranceType",
      "outputs": [
        {
          "name": "",
          "type": "uint256"
        }
      ],
      "payable": false,
      "stateMutability": "view",
      "type": "function"
    },
    {
      "constant": true,
      "inputs": [],
      "name": "expired",
      "outputs": [
        {
          "name": "",
          "type": "bool"
        }
      ],
      "payable": false,
      "stateMutability": "view",
      "type": "function"
    },
    {
      "constant": true,
      "inputs": [],
      "name": "insuranceId",
      "outputs": [
        {
          "name": "",
          "type": "string"
        }
      ],
      "payable": false,
      "stateMutability": "view",
      "type": "function"
    },
    {
      "constant": true,
      "inputs": [],
      "name": "endingTime",
      "outputs": [
        {
          "name": "",
          "type": "uint256"
        }
      ],
      "payable": false,
      "stateMutability": "view",
      "type": "function"
    },
    {
      "constant": true,
      "inputs": [],
      "name": "buyer",
      "outputs": [
        {
          "name": "",
          "type": "address"
        }
      ],
      "payable": false,
      "stateMutability": "view",
      "type": "function"
    },
    {
      "constant": true,
      "inputs": [],
      "name": "owner",
      "outputs": [
        {
          "name": "",
          "type": "address"
        }
      ],
      "payable": false,
      "stateMutability": "view",
      "type": "function"
    },
    {
      "constant": true,
      "inputs": [],
      "name": "isOwner",
      "outputs": [
        {
          "name": "",
          "type": "bool"
        }
      ],
      "payable": false,
      "stateMutability": "view",
      "type": "function"
    },
    {
      "constant": true,
      "inputs": [],
      "name": "price",
      "outputs": [
        {
          "name": "",
          "type": "uint256"
        }
      ],
      "payable": false,
      "stateMutability": "view",
      "type": "function"
    },
    {
      "constant": true,
      "inputs": [],
      "name": "deploymentTime",
      "outputs": [
        {
          "name": "",
          "type": "uint256"
        }
      ],
      "payable": false,
      "stateMutability": "view",
      "type": "function"
    },
    {
      "constant": false,
      "inputs": [
        {
          "name": "newOwner",
          "type": "address"
        }
      ],
      "name": "transferOwnership",
      "outputs": [],
      "payable": false,
      "stateMutability": "nonpayable",
      "type": "function"
    },
    {
      "inputs": [
        {
          "name": "_buyer",
          "type": "address"
        },
        {
          "name": "_insuranceId",
          "type": "string"
        },
        {
          "name": "_price",
          "type": "uint256"
        },
        {
          "name": "_insuranceType",
          "type": "uint256"
        },
        {
          "name": "_startingTime",
          "type": "uint256"
        },
        {
          "name": "_endingTime",
          "type": "uint256"
        },
        {
          "name": "_jobId",
          "type": "string"
        },
        {
          "name": "_oracle",
          "type": "address"
        },
        {
          "name": "_link",
          "type": "address"
        }
      ],
      "payable": true,
      "stateMutability": "payable",
      "type": "constructor"
    },
    {
      "anonymous": false,
      "inputs": [
        {
          "indexed": false,
          "name": "success",
          "type": "bool"
        }
      ],
      "name": "successNodeResponse",
      "type": "event"
    },
    {
      "anonymous": false,
      "inputs": [
        {
          "indexed": true,
          "name": "previousOwner",
          "type": "address"
        },
        {
          "indexed": true,
          "name": "newOwner",
          "type": "address"
        }
      ],
      "name": "OwnershipTransferred",
      "type": "event"
    },
    {
      "anonymous": false,
      "inputs": [
        {
          "indexed": true,
          "name": "id",
          "type": "bytes32"
        }
      ],
      "name": "ChainlinkRequested",
      "type": "event"
    },
    {
      "anonymous": false,
      "inputs": [
        {
          "indexed": true,
          "name": "id",
          "type": "bytes32"
        }
      ],
      "name": "ChainlinkFulfilled",
      "type": "event"
    },
    {
      "anonymous": false,
      "inputs": [
        {
          "indexed": true,
          "name": "id",
          "type": "bytes32"
        }
      ],
      "name": "ChainlinkCancelled",
      "type": "event"
    },
    {
      "constant": false,
      "inputs": [
        {
          "name": "_requestId",
          "type": "bytes32"
        },
        {
          "name": "paid",
          "type": "bool"
        }
      ],
      "name": "fulfillNodeRequest",
      "outputs": [],
      "payable": false,
      "stateMutability": "nonpayable",
      "type": "function"
    }
  ],
  "bytecode": "0x608060405260016004556000600660146101000a81548160ff0219169083151502179055506000600660156101000a81548160ff02191690831515021790555060405162000ec838038062000ec883398101806040526101208110156200006557600080fd5b810190808051906020019092919080516401000000008111156200008857600080fd5b828101905060208101848111156200009f57600080fd5b8151856001820283011164010000000082111715620000bd57600080fd5b50509291906020018051906020019092919080519060200190929190805190602001909291908051906020019092919080516401000000008111156200010257600080fd5b828101905060208101848111156200011957600080fd5b81518560018202830111640100000000821117156200013757600080fd5b5050929190602001805190602001909291908051906020019092919050505033600660006101000a81548173ffffffffffffffffffffffffffffffffffffffff021916908373ffffffffffffffffffffffffffffffffffffffff160217905550600660009054906101000a900473ffffffffffffffffffffffffffffffffffffffff1673ffffffffffffffffffffffffffffffffffffffff16600073ffffffffffffffffffffffffffffffffffffffff167f8be0079c531659141344cd1fd0a4f28419497f9722a3daafe3b4186f6b6457e060405160405180910390a388600760006101000a81548173ffffffffffffffffffffffffffffffffffffffff021916908373ffffffffffffffffffffffffffffffffffffffff16021790555087600890805190602001906200026d9291906200049b565b508660098190555085600a8190555084600b8190555083600c8190555042600d81905550600073ffffffffffffffffffffffffffffffffffffffff168173ffffffffffffffffffffffffffffffffffffffff1614156200030057620002e062000344640100000000026401000000009004565b620002fa8262000413640100000000026401000000009004565b62000335565b6200031a8162000457640100000000026401000000009004565b620003348262000413640100000000026401000000009004565b5b5050505050505050506200054a565b6200041173c89bd4e1632d3a43cb03aaad5262cbe4038bc57173ffffffffffffffffffffffffffffffffffffffff166338cc48316040518163ffffffff167c010000000000000000000000000000000000000000000000000000000002815260040160206040518083038186803b158015620003bf57600080fd5b505afa158015620003d4573d6000803e3d6000fd5b505050506040513d6020811015620003eb57600080fd5b810190808051906020019092919050505062000457640100000000026401000000009004565b565b80600360006101000a81548173ffffffffffffffffffffffffffffffffffffffff021916908373ffffffffffffffffffffffffffffffffffffffff16021790555050565b80600260006101000a81548173ffffffffffffffffffffffffffffffffffffffff021916908373ffffffffffffffffffffffffffffffffffffffff16021790555050565b828054600181600116156101000203166002900490600052602060002090601f016020900481019282601f10620004de57805160ff19168380011785556200050f565b828001600101855582156200050f579182015b828111156200050e578251825591602001919060010190620004f1565b5b5090506200051e919062000522565b5090565b6200054791905b808211156200054357600081600090555060010162000529565b5090565b90565b61096e806200055a6000396000f3fe6080604052600436106100c5576000357c0100000000000000000000000000000000000000000000000000000000900463ffffffff16806308605d7d146100ca578063295b4e171461011157806339518b5e14610140578063488439561461016b5780634c2067c7146101965780635acf77b0146101c55780636c47a6c3146102555780637150d8ae146102805780638da5cb5b146102d75780638f32d59b1461032e578063a035b1fe1461035d578063ecda10f514610388578063f2fde38b146103b3575b600080fd5b3480156100d657600080fd5b5061010f600480360360408110156100ed57600080fd5b8101908080359060200190929190803515159060200190929190505050610404565b005b34801561011d57600080fd5b506101266105a5565b604051808215151515815260200191505060405180910390f35b34801561014c57600080fd5b506101556105b8565b6040518082815260200191505060405180910390f35b34801561017757600080fd5b506101806105be565b6040518082815260200191505060405180910390f35b3480156101a257600080fd5b506101ab6105c4565b604051808215151515815260200191505060405180910390f35b3480156101d157600080fd5b506101da6105d7565b6040518080602001828103825283818151815260200191508051906020019080838360005b8381101561021a5780820151818401526020810190506101ff565b50505050905090810190601f1680156102475780820380516001836020036101000a031916815260200191505b509250505060405180910390f35b34801561026157600080fd5b5061026a610675565b6040518082815260200191505060405180910390f35b34801561028c57600080fd5b5061029561067b565b604051808273ffffffffffffffffffffffffffffffffffffffff1673ffffffffffffffffffffffffffffffffffffffff16815260200191505060405180910390f35b3480156102e357600080fd5b506102ec6106a1565b604051808273ffffffffffffffffffffffffffffffffffffffff1673ffffffffffffffffffffffffffffffffffffffff16815260200191505060405180910390f35b34801561033a57600080fd5b506103436106cb565b604051808215151515815260200191505060405180910390f35b34801561036957600080fd5b50610372610723565b6040518082815260200191505060405180910390f35b34801561039457600080fd5b5061039d610729565b6040518082815260200191505060405180910390f35b3480156103bf57600080fd5b50610402600480360360208110156103d657600080fd5b81019080803573ffffffffffffffffffffffffffffffffffffffff16906020019092919050505061072f565b005b816005600082815260200190815260200160002060009054906101000a900473ffffffffffffffffffffffffffffffffffffffff1673ffffffffffffffffffffffffffffffffffffffff163373ffffffffffffffffffffffffffffffffffffffff16141515610501576040517f08c379a00000000000000000000000000000000000000000000000000000000081526004018080602001828103825260288152602001807f536f75726365206d75737420626520746865206f7261636c65206f662074686581526020017f207265717565737400000000000000000000000000000000000000000000000081525060400191505060405180910390fd5b6005600082815260200190815260200160002060006101000a81549073ffffffffffffffffffffffffffffffffffffffff0219169055807f7cc135e0cebb02c3480ae5d74d377283180a2601f8f644edf7987b009316c63a60405160405180910390a27f59d9805d3a15aed4cbbaab04888205edfc7c5c12896488193cde9654574e4b426001604051808215151515815260200191505060405180910390a1505050565b600660159054906101000a900460ff1681565b600b5481565b600a5481565b600660149054906101000a900460ff1681565b60088054600181600116156101000203166002900480601f01602080910402602001604051908101604052809291908181526020018280546001816001161561010002031660029004801561066d5780601f106106425761010080835404028352916020019161066d565b820191906000526020600020905b81548152906001019060200180831161065057829003601f168201915b505050505081565b600c5481565b600760009054906101000a900473ffffffffffffffffffffffffffffffffffffffff1681565b6000600660009054906101000a900473ffffffffffffffffffffffffffffffffffffffff16905090565b6000600660009054906101000a900473ffffffffffffffffffffffffffffffffffffffff1673ffffffffffffffffffffffffffffffffffffffff163373ffffffffffffffffffffffffffffffffffffffff1614905090565b60095481565b600d5481565b6107376106cb565b15156107ab576040517f08c379a00000000000000000000000000000000000000000000000000000000081526004018080602001828103825260208152602001807f4f776e61626c653a2063616c6c6572206973206e6f7420746865206f776e657281525060200191505060405180910390fd5b6107b4816107b7565b50565b600073ffffffffffffffffffffffffffffffffffffffff168173ffffffffffffffffffffffffffffffffffffffff1614151515610882576040517f08c379a00000000000000000000000000000000000000000000000000000000081526004018080602001828103825260268152602001807f4f776e61626c653a206e6577206f776e657220697320746865207a65726f206181526020017f646472657373000000000000000000000000000000000000000000000000000081525060400191505060405180910390fd5b8073ffffffffffffffffffffffffffffffffffffffff16600660009054906101000a900473ffffffffffffffffffffffffffffffffffffffff1673ffffffffffffffffffffffffffffffffffffffff167f8be0079c531659141344cd1fd0a4f28419497f9722a3daafe3b4186f6b6457e060405160405180910390a380600660006101000a81548173ffffffffffffffffffffffffffffffffffffffff021916908373ffffffffffffffffffffffffffffffffffffffff1602179055505056fea165627a7a72305820b66ef6668412a2ac4a4c85752600db98b6fe0b4318b90303b7bd06174815d8770029",
  "source": "pragma solidity >=0.5.0 <0.6.0;\n\nimport \"chainlink/v0.5/contracts/ChainlinkClient.sol\";\nimport \"chainlink/v0.5/contracts/vendor/Ownable.sol\";\nimport {\n    SafeMath as SafeMath_Chainlink\n} from \"chainlink/v0.5/contracts/vendor/SafeMath.sol\";\n\ncontract Evi is ChainlinkClient, Ownable {\n    using SafeMath_Chainlink for uint256;\n    uint256 constant private ORACLE_PAYMENT = 1 * LINK;\n    bool public expired = false;\n    bool public paid = false;\n\n    address public buyer;\n    string  public insuranceId;\n    uint256 public price;\n    uint256 public insuranceType;\n    uint256 public startingTime;\n    uint256 public endingTime;\n    uint256 public deploymentTime;\n\n\n    event successNodeResponse(\n      bool success\n    );\n\n    constructor(\n      address _buyer,\n      string memory _insuranceId,\n      uint256 _price,\n      uint256 _insuranceType,\n      uint256 _startingTime,\n      uint256 _endingTime,\n      string memory _jobId,\n      address _oracle,\n      address _link ) public payable {\n\n      buyer = _buyer;\n      insuranceId = _insuranceId;\n      price = _price;\n      insuranceType = _insuranceType;\n      startingTime = _startingTime;\n      endingTime = _endingTime;\n      deploymentTime = block.timestamp;\n\n      if (_link == address(0)) {\n        setPublicChainlinkToken();\n        setChainlinkOracle(_oracle);\n      } else {\n        setChainlinkToken(_link);\n        setChainlinkOracle(_oracle);\n      }\n    }\n\n    modifier buyerContract(){\n        require(address(this) == msg.sender || buyer == msg.sender,\"Unauthorised , must be buyer\");\n        _;\n    }\n\n    function fulfillNodeRequest(bytes32 _requestId, bool paid) public recordChainlinkFulfillment(_requestId) {\n        emit successNodeResponse(true);\n    }\n\n}\n",
  "sourcePath": "/home/tran.minh.chien/Workspace/Blockchain/Evi/contract/contracts/Evi.sol",
  "compiler": {
    "name": "solc",
    "version": "0.5.0+commit.1d4f565a.Emscripten.clang"
  },
  "schemaVersion": "3.0.19",
  "updatedAt": "2019-12-05T01:19:22.479Z",
  "devdoc": {
    "methods": {
      "isOwner()": {
        "details": "Returns true if the caller is the current owner."
      },
      "owner()": {
        "details": "Returns the address of the current owner."
      },
      "transferOwnership(address)": {
        "details": "Transfers ownership of the contract to a new account (`newOwner`). Can only be called by the current owner."
      }
    }
  },
  "userdoc": {
    "methods": {}
  }
}