{
  "contractName": "EviFactory",
  "abi": [
    {
      "constant": true,
      "inputs": [
        {
          "name": "",
          "type": "address"
        },
        {
          "name": "",
          "type": "uint256"
        }
      ],
      "name": "contractsOfBuyer",
      "outputs": [
        {
          "name": "",
          "type": "address"
        }
      ],
      "payable": false,
      "stateMutability": "view",
      "type": "function"
    },
    {
      "anonymous": false,
      "inputs": [
        {
          "indexed": false,
          "name": "Evi",
          "type": "address"
        }
      ],
      "name": "contractDeployed",
      "type": "event"
    },
    {
      "constant": false,
      "inputs": [
        {
          "name": "_insuranceId",
          "type": "string"
        },
        {
          "name": "_price",
          "type": "uint256"
        },
        {
          "name": "_insuranceType",
          "type": "uint256"
        },
        {
          "name": "_startingTime",
          "type": "uint256"
        },
        {
          "name": "_endingTime",
          "type": "uint256"
        },
        {
          "name": "_jobId",
          "type": "string"
        },
        {
          "name": "_oracle",
          "type": "address"
        },
        {
          "name": "_link",
          "type": "address"
        }
      ],
      "name": "createEvi",
      "outputs": [],
      "payable": true,
      "stateMutability": "payable",
      "type": "function"
    },
    {
      "constant": true,
      "inputs": [
        {
          "name": "_buyer",
          "type": "address"
        }
      ],
      "name": "getAllContract",
      "outputs": [
        {
          "name": "",
          "type": "address[]"
        }
      ],
      "payable": false,
      "stateMutability": "view",
      "type": "function"
    }
  ],
  "bytecode": "0x608060405234801561001057600080fd5b506116be806100206000396000f3fe608060405260043610610057576000357c0100000000000000000000000000000000000000000000000000000000900463ffffffff1680631aad956a1461005c57806339b7a2bd14610217578063d95702d2146102b2575b600080fd5b610215600480360361010081101561007357600080fd5b810190808035906020019064010000000081111561009057600080fd5b8201836020820111156100a257600080fd5b803590602001918460018302840111640100000000831117156100c457600080fd5b91908080601f016020809104026020016040519081016040528093929190818152602001838380828437600081840152601f19601f820116905080830192505050505050509192919290803590602001909291908035906020019092919080359060200190929190803590602001909291908035906020019064010000000081111561014f57600080fd5b82018360208201111561016157600080fd5b8035906020019184600183028401116401000000008311171561018357600080fd5b91908080601f016020809104026020016040519081016040528093929190818152602001838380828437600081840152601f19601f820116905080830192505050505050509192919290803573ffffffffffffffffffffffffffffffffffffffff169060200190929190803573ffffffffffffffffffffffffffffffffffffffff169060200190929190505050610358565b005b34801561022357600080fd5b506102706004803603604081101561023a57600080fd5b81019080803573ffffffffffffffffffffffffffffffffffffffff169060200190929190803590602001909291905050506106a1565b604051808273ffffffffffffffffffffffffffffffffffffffff1673ffffffffffffffffffffffffffffffffffffffff16815260200191505060405180910390f35b3480156102be57600080fd5b50610301600480360360208110156102d557600080fd5b81019080803573ffffffffffffffffffffffffffffffffffffffff1690602001909291905050506106ee565b6040518080602001828103825283818151815260200191508051906020019060200280838360005b83811015610344578082015181840152602081019050610329565b505050509050019250505060405180910390f35b86341115156103cf576040517f08c379a00000000000000000000000000000000000000000000000000000000081526004018080602001828103825260108152602001807f4e6f7420456e6f756768204d6f6e65790000000000000000000000000000000081525060200191505060405180910390fd5b60003389898989898989896103e26107ba565b808a73ffffffffffffffffffffffffffffffffffffffff1673ffffffffffffffffffffffffffffffffffffffff16815260200180602001898152602001888152602001878152602001868152602001806020018573ffffffffffffffffffffffffffffffffffffffff1673ffffffffffffffffffffffffffffffffffffffff1681526020018473ffffffffffffffffffffffffffffffffffffffff1673ffffffffffffffffffffffffffffffffffffffff16815260200183810383528b818151815260200191508051906020019080838360005b838110156104d15780820151818401526020810190506104b6565b50505050905090810190601f1680156104fe5780820380516001836020036101000a031916815260200191505b50838103825286818151815260200191508051906020019080838360005b8381101561053757808201518184015260208101905061051c565b50505050905090810190601f1680156105645780820380516001836020036101000a031916815260200191505b509b505050505050505050505050604051809103906000f08015801561058e573d6000803e3d6000fd5b5090506000803373ffffffffffffffffffffffffffffffffffffffff1673ffffffffffffffffffffffffffffffffffffffff1681526020019081526020016000208190806001815401808255809150509060018203906000526020600020016000909192909190916101000a81548173ffffffffffffffffffffffffffffffffffffffff021916908373ffffffffffffffffffffffffffffffffffffffff160217905550507fee7093296389b8f6f6999cb461eee1c07db08ab6780299009000b4e3a45a20f681604051808273ffffffffffffffffffffffffffffffffffffffff1673ffffffffffffffffffffffffffffffffffffffff16815260200191505060405180910390a1505050505050505050565b6000602052816000526040600020818154811015156106bc57fe5b906000526020600020016000915091509054906101000a900473ffffffffffffffffffffffffffffffffffffffff1681565b60606000808373ffffffffffffffffffffffffffffffffffffffff1673ffffffffffffffffffffffffffffffffffffffff1681526020019081526020016000208054806020026020016040519081016040528092919081815260200182805480156107ae57602002820191906000526020600020905b8160009054906101000a900473ffffffffffffffffffffffffffffffffffffffff1673ffffffffffffffffffffffffffffffffffffffff1681526020019060010190808311610764575b50505050509050919050565b604051610ec8806107cb8339019056fe608060405260016004556000600660146101000a81548160ff0219169083151502179055506000600660156101000a81548160ff02191690831515021790555060405162000ec838038062000ec883398101806040526101208110156200006557600080fd5b810190808051906020019092919080516401000000008111156200008857600080fd5b828101905060208101848111156200009f57600080fd5b8151856001820283011164010000000082111715620000bd57600080fd5b50509291906020018051906020019092919080519060200190929190805190602001909291908051906020019092919080516401000000008111156200010257600080fd5b828101905060208101848111156200011957600080fd5b81518560018202830111640100000000821117156200013757600080fd5b5050929190602001805190602001909291908051906020019092919050505033600660006101000a81548173ffffffffffffffffffffffffffffffffffffffff021916908373ffffffffffffffffffffffffffffffffffffffff160217905550600660009054906101000a900473ffffffffffffffffffffffffffffffffffffffff1673ffffffffffffffffffffffffffffffffffffffff16600073ffffffffffffffffffffffffffffffffffffffff167f8be0079c531659141344cd1fd0a4f28419497f9722a3daafe3b4186f6b6457e060405160405180910390a388600760006101000a81548173ffffffffffffffffffffffffffffffffffffffff021916908373ffffffffffffffffffffffffffffffffffffffff16021790555087600890805190602001906200026d9291906200049b565b508660098190555085600a8190555084600b8190555083600c8190555042600d81905550600073ffffffffffffffffffffffffffffffffffffffff168173ffffffffffffffffffffffffffffffffffffffff1614156200030057620002e062000344640100000000026401000000009004565b620002fa8262000413640100000000026401000000009004565b62000335565b6200031a8162000457640100000000026401000000009004565b620003348262000413640100000000026401000000009004565b5b5050505050505050506200054a565b6200041173c89bd4e1632d3a43cb03aaad5262cbe4038bc57173ffffffffffffffffffffffffffffffffffffffff166338cc48316040518163ffffffff167c010000000000000000000000000000000000000000000000000000000002815260040160206040518083038186803b158015620003bf57600080fd5b505afa158015620003d4573d6000803e3d6000fd5b505050506040513d6020811015620003eb57600080fd5b810190808051906020019092919050505062000457640100000000026401000000009004565b565b80600360006101000a81548173ffffffffffffffffffffffffffffffffffffffff021916908373ffffffffffffffffffffffffffffffffffffffff16021790555050565b80600260006101000a81548173ffffffffffffffffffffffffffffffffffffffff021916908373ffffffffffffffffffffffffffffffffffffffff16021790555050565b828054600181600116156101000203166002900490600052602060002090601f016020900481019282601f10620004de57805160ff19168380011785556200050f565b828001600101855582156200050f579182015b828111156200050e578251825591602001919060010190620004f1565b5b5090506200051e919062000522565b5090565b6200054791905b808211156200054357600081600090555060010162000529565b5090565b90565b61096e806200055a6000396000f3fe6080604052600436106100c5576000357c0100000000000000000000000000000000000000000000000000000000900463ffffffff16806308605d7d146100ca578063295b4e171461011157806339518b5e14610140578063488439561461016b5780634c2067c7146101965780635acf77b0146101c55780636c47a6c3146102555780637150d8ae146102805780638da5cb5b146102d75780638f32d59b1461032e578063a035b1fe1461035d578063ecda10f514610388578063f2fde38b146103b3575b600080fd5b3480156100d657600080fd5b5061010f600480360360408110156100ed57600080fd5b8101908080359060200190929190803515159060200190929190505050610404565b005b34801561011d57600080fd5b506101266105a5565b604051808215151515815260200191505060405180910390f35b34801561014c57600080fd5b506101556105b8565b6040518082815260200191505060405180910390f35b34801561017757600080fd5b506101806105be565b6040518082815260200191505060405180910390f35b3480156101a257600080fd5b506101ab6105c4565b604051808215151515815260200191505060405180910390f35b3480156101d157600080fd5b506101da6105d7565b6040518080602001828103825283818151815260200191508051906020019080838360005b8381101561021a5780820151818401526020810190506101ff565b50505050905090810190601f1680156102475780820380516001836020036101000a031916815260200191505b509250505060405180910390f35b34801561026157600080fd5b5061026a610675565b6040518082815260200191505060405180910390f35b34801561028c57600080fd5b5061029561067b565b604051808273ffffffffffffffffffffffffffffffffffffffff1673ffffffffffffffffffffffffffffffffffffffff16815260200191505060405180910390f35b3480156102e357600080fd5b506102ec6106a1565b604051808273ffffffffffffffffffffffffffffffffffffffff1673ffffffffffffffffffffffffffffffffffffffff16815260200191505060405180910390f35b34801561033a57600080fd5b506103436106cb565b604051808215151515815260200191505060405180910390f35b34801561036957600080fd5b50610372610723565b6040518082815260200191505060405180910390f35b34801561039457600080fd5b5061039d610729565b6040518082815260200191505060405180910390f35b3480156103bf57600080fd5b50610402600480360360208110156103d657600080fd5b81019080803573ffffffffffffffffffffffffffffffffffffffff16906020019092919050505061072f565b005b816005600082815260200190815260200160002060009054906101000a900473ffffffffffffffffffffffffffffffffffffffff1673ffffffffffffffffffffffffffffffffffffffff163373ffffffffffffffffffffffffffffffffffffffff16141515610501576040517f08c379a00000000000000000000000000000000000000000000000000000000081526004018080602001828103825260288152602001807f536f75726365206d75737420626520746865206f7261636c65206f662074686581526020017f207265717565737400000000000000000000000000000000000000000000000081525060400191505060405180910390fd5b6005600082815260200190815260200160002060006101000a81549073ffffffffffffffffffffffffffffffffffffffff0219169055807f7cc135e0cebb02c3480ae5d74d377283180a2601f8f644edf7987b009316c63a60405160405180910390a27f59d9805d3a15aed4cbbaab04888205edfc7c5c12896488193cde9654574e4b426001604051808215151515815260200191505060405180910390a1505050565b600660159054906101000a900460ff1681565b600b5481565b600a5481565b600660149054906101000a900460ff1681565b60088054600181600116156101000203166002900480601f01602080910402602001604051908101604052809291908181526020018280546001816001161561010002031660029004801561066d5780601f106106425761010080835404028352916020019161066d565b820191906000526020600020905b81548152906001019060200180831161065057829003601f168201915b505050505081565b600c5481565b600760009054906101000a900473ffffffffffffffffffffffffffffffffffffffff1681565b6000600660009054906101000a900473ffffffffffffffffffffffffffffffffffffffff16905090565b6000600660009054906101000a900473ffffffffffffffffffffffffffffffffffffffff1673ffffffffffffffffffffffffffffffffffffffff163373ffffffffffffffffffffffffffffffffffffffff1614905090565b60095481565b600d5481565b6107376106cb565b15156107ab576040517f08c379a00000000000000000000000000000000000000000000000000000000081526004018080602001828103825260208152602001807f4f776e61626c653a2063616c6c6572206973206e6f7420746865206f776e657281525060200191505060405180910390fd5b6107b4816107b7565b50565b600073ffffffffffffffffffffffffffffffffffffffff168173ffffffffffffffffffffffffffffffffffffffff1614151515610882576040517f08c379a00000000000000000000000000000000000000000000000000000000081526004018080602001828103825260268152602001807f4f776e61626c653a206e6577206f776e657220697320746865207a65726f206181526020017f646472657373000000000000000000000000000000000000000000000000000081525060400191505060405180910390fd5b8073ffffffffffffffffffffffffffffffffffffffff16600660009054906101000a900473ffffffffffffffffffffffffffffffffffffffff1673ffffffffffffffffffffffffffffffffffffffff167f8be0079c531659141344cd1fd0a4f28419497f9722a3daafe3b4186f6b6457e060405160405180910390a380600660006101000a81548173ffffffffffffffffffffffffffffffffffffffff021916908373ffffffffffffffffffffffffffffffffffffffff1602179055505056fea165627a7a72305820b66ef6668412a2ac4a4c85752600db98b6fe0b4318b90303b7bd06174815d8770029a165627a7a72305820051c26a50aea67e18d48d664f5d4803ba94f2fcee6319a414060203fc2bb30800029",
  "source": "pragma solidity >=0.5.0 <0.6.0;\nimport \"./Evi.sol\";\n\ncontract EviFactory {\n  mapping (address => address[]) public contractsOfBuyer;\n\n    event contractDeployed(\n        address Evi\n    );\n\n    enum Status { EMPTY, WAITING, COMPENSATED }\n\n    function createEvi(\n      string memory _insuranceId,\n      uint256 _price,\n      uint256 _insuranceType,\n      uint256 _startingTime,\n      uint256 _endingTime,\n      string memory _jobId,\n      address _oracle,\n      address _link\n    ) public payable {\n        require(msg.value > _price, \"Not Enough Money\");\n        address packageInsurance = address(new Evi(msg.sender, _insuranceId, _price, _insuranceType, _startingTime, _endingTime , _jobId, _oracle, _link));\n\n        contractsOfBuyer[msg.sender].push(packageInsurance);\n        emit contractDeployed(packageInsurance);\n    }\n\n    function getAllContract(address _buyer) public view returns(address[] memory) {\n        return contractsOfBuyer[_buyer];\n    }\n\n}\n",
  "sourcePath": "/home/tran.minh.chien/Workspace/Blockchain/Evi/contract/contracts/EviFactory.sol",
  "compiler": {
    "name": "solc",
    "version": "0.5.0+commit.1d4f565a.Emscripten.clang"
  },
  "schemaVersion": "3.0.19",
  "updatedAt": "2019-12-05T01:19:22.484Z",
  "devdoc": {
    "methods": {}
  },
  "userdoc": {
    "methods": {}
  }
}