{
  "contractName": "Factory",
  "abi": [
    {
      "constant": true,
      "inputs": [
        {
          "name": "",
          "type": "address"
        },
        {
          "name": "",
          "type": "uint256"
        }
      ],
      "name": "ownedSesame",
      "outputs": [
        {
          "name": "",
          "type": "address"
        }
      ],
      "payable": false,
      "stateMutability": "view",
      "type": "function"
    },
    {
      "payable": true,
      "stateMutability": "payable",
      "type": "fallback"
    },
    {
      "constant": false,
      "inputs": [
        {
          "name": "_startDate",
          "type": "uint256"
        },
        {
          "name": "_endDate",
          "type": "uint256"
        },
        {
          "name": "_cost",
          "type": "uint256"
        }
      ],
      "name": "createSesame",
      "outputs": [],
      "payable": false,
      "stateMutability": "nonpayable",
      "type": "function"
    },
    {
      "constant": true,
      "inputs": [
        {
          "name": "_owner",
          "type": "address"
        }
      ],
      "name": "getAllSesameOf",
      "outputs": [
        {
          "name": "",
          "type": "address[]"
        }
      ],
      "payable": false,
      "stateMutability": "view",
      "type": "function"
    },
    {
      "constant": false,
      "inputs": [
        {
          "name": "_sesame",
          "type": "address"
        }
      ],
      "name": "booking",
      "outputs": [],
      "payable": true,
      "stateMutability": "payable",
      "type": "function"
    },
    {
      "constant": true,
      "inputs": [],
      "name": "getAllSesames",
      "outputs": [
        {
          "name": "",
          "type": "address[]"
        }
      ],
      "payable": false,
      "stateMutability": "view",
      "type": "function"
    }
  ],
  "bytecode": "0x608060405234801561001057600080fd5b506111c7806100206000396000f3fe60806040526004361061006d576000357c0100000000000000000000000000000000000000000000000000000000900463ffffffff1680633e82a54c1461006f5780637a6fc9e61461010a5780638ff3a741146101b0578063a5a344a91461021c578063e2a7446f14610260575b005b34801561007b57600080fd5b506100c86004803603604081101561009257600080fd5b81019080803573ffffffffffffffffffffffffffffffffffffffff169060200190929190803590602001909291905050506102af565b604051808273ffffffffffffffffffffffffffffffffffffffff1673ffffffffffffffffffffffffffffffffffffffff16815260200191505060405180910390f35b34801561011657600080fd5b506101596004803603602081101561012d57600080fd5b81019080803573ffffffffffffffffffffffffffffffffffffffff1690602001909291905050506102fc565b6040518080602001828103825283818151815260200191508051906020019060200280838360005b8381101561019c578082015181840152602081019050610181565b505050509050019250505060405180910390f35b3480156101bc57600080fd5b506101c56103c8565b6040518080602001828103825283818151815260200191508051906020019060200280838360005b838110156102085780820151818401526020810190506101ed565b505050509050019250505060405180910390f35b61025e6004803603602081101561023257600080fd5b81019080803573ffffffffffffffffffffffffffffffffffffffff169060200190929190505050610456565b005b34801561026c57600080fd5b506102ad6004803603606081101561028357600080fd5b810190808035906020019092919080359060200190929190803590602001909291905050506106b6565b005b6000602052816000526040600020818154811015156102ca57fe5b906000526020600020016000915091509054906101000a900473ffffffffffffffffffffffffffffffffffffffff1681565b60606000808373ffffffffffffffffffffffffffffffffffffffff1673ffffffffffffffffffffffffffffffffffffffff1681526020019081526020016000208054806020026020016040519081016040528092919081815260200182805480156103bc57602002820191906000526020600020905b8160009054906101000a900473ffffffffffffffffffffffffffffffffffffffff1673ffffffffffffffffffffffffffffffffffffffff1681526020019060010190808311610372575b50505050509050919050565b6060600180548060200260200160405190810160405280929190818152602001828054801561044c57602002820191906000526020600020905b8160009054906101000a900473ffffffffffffffffffffffffffffffffffffffff1673ffffffffffffffffffffffffffffffffffffffff1681526020019060010190808311610402575b5050505050905090565b600081905060008173ffffffffffffffffffffffffffffffffffffffff166313faede66040518163ffffffff167c010000000000000000000000000000000000000000000000000000000002815260040160206040518083038186803b1580156104bf57600080fd5b505afa1580156104d3573d6000803e3d6000fd5b505050506040513d60208110156104e957600080fd5b81019080805190602001909291905050509050670de0b6b3a76400008102341015151561051557600080fd5b8273ffffffffffffffffffffffffffffffffffffffff166108fc349081150290604051600060405180830381858888f1935050505015801561055b573d6000803e3d6000fd5b508173ffffffffffffffffffffffffffffffffffffffff1663a5a344a9336040518263ffffffff167c0100000000000000000000000000000000000000000000000000000000028152600401808273ffffffffffffffffffffffffffffffffffffffff1673ffffffffffffffffffffffffffffffffffffffff168152602001915050600060405180830381600087803b1580156105f757600080fd5b505af115801561060b573d6000803e3d6000fd5b505050506000803373ffffffffffffffffffffffffffffffffffffffff1673ffffffffffffffffffffffffffffffffffffffff1681526020019081526020016000208390806001815401808255809150509060018203906000526020600020016000909192909190916101000a81548173ffffffffffffffffffffffffffffffffffffffff021916908373ffffffffffffffffffffffffffffffffffffffff16021790555050505050565b6000338484846106c461079a565b808573ffffffffffffffffffffffffffffffffffffffff1673ffffffffffffffffffffffffffffffffffffffff168152602001848152602001838152602001828152602001945050505050604051809103906000f08015801561072b573d6000803e3d6000fd5b50905060018190806001815401808255809150509060018203906000526020600020016000909192909190916101000a81548173ffffffffffffffffffffffffffffffffffffffff021916908373ffffffffffffffffffffffffffffffffffffffff1602179055505050505050565b6040516109f1806107ab8339019056fe60806040526001600460146101000a81548160ff02191690831515021790555034801561002b57600080fd5b506040516080806109f18339810180604052608081101561004b57600080fd5b8101908080519060200190929190805190602001909291908051906020019092919080519060200190929190505050336000806101000a81548173ffffffffffffffffffffffffffffffffffffffff021916908373ffffffffffffffffffffffffffffffffffffffff160217905550836000806101000a81548173ffffffffffffffffffffffffffffffffffffffff021916908373ffffffffffffffffffffffffffffffffffffffff1602179055508260028190555081600381905550806001819055506000600460006101000a81548173ffffffffffffffffffffffffffffffffffffffff021916908373ffffffffffffffffffffffffffffffffffffffff1602179055505050505061088d806101646000396000f3fe6080604052600436106100c5576000357c0100000000000000000000000000000000000000000000000000000000900463ffffffff1680630b97bc86146100c757806313af4035146100f257806313faede6146101435780632e88ab0b1461016e57806378f305c6146101c55780637e5852d9146101f05780637f6ae7701461021f5780638f84aa0914610276578063a5a344a9146102cd578063b135648814610311578063c24a0f8b1461033c578063f07b62be14610367578063f83d08ba1461037e575b005b3480156100d357600080fd5b506100dc6103ad565b6040518082815260200191505060405180910390f35b3480156100fe57600080fd5b506101416004803603602081101561011557600080fd5b81019080803573ffffffffffffffffffffffffffffffffffffffff1690602001909291905050506103b3565b005b34801561014f57600080fd5b50610158610585565b6040518082815260200191505060405180910390f35b34801561017a57600080fd5b5061018361058b565b604051808273ffffffffffffffffffffffffffffffffffffffff1673ffffffffffffffffffffffffffffffffffffffff16815260200191505060405180910390f35b3480156101d157600080fd5b506101da6105b1565b6040518082815260200191505060405180910390f35b3480156101fc57600080fd5b506102056105bb565b604051808215151515815260200191505060405180910390f35b34801561022b57600080fd5b506102346105d2565b604051808273ffffffffffffffffffffffffffffffffffffffff1673ffffffffffffffffffffffffffffffffffffffff16815260200191505060405180910390f35b34801561028257600080fd5b5061028b6105fc565b604051808273ffffffffffffffffffffffffffffffffffffffff1673ffffffffffffffffffffffffffffffffffffffff16815260200191505060405180910390f35b61030f600480360360208110156102e357600080fd5b81019080803573ffffffffffffffffffffffffffffffffffffffff169060200190929190505050610621565b005b34801561031d57600080fd5b506103266106c2565b6040518082815260200191505060405180910390f35b34801561034857600080fd5b506103516106cc565b6040518082815260200191505060405180910390f35b34801561037357600080fd5b5061037c6106d2565b005b34801561038a57600080fd5b5061039361084e565b604051808215151515815260200191505060405180910390f35b60025481565b6000809054906101000a900473ffffffffffffffffffffffffffffffffffffffff1673ffffffffffffffffffffffffffffffffffffffff163373ffffffffffffffffffffffffffffffffffffffff16141515610477576040517f08c379a00000000000000000000000000000000000000000000000000000000081526004018080602001828103825260128152602001807f73656e646572206d7573742062652063656f000000000000000000000000000081525060200191505060405180910390fd5b600073ffffffffffffffffffffffffffffffffffffffff168173ffffffffffffffffffffffffffffffffffffffff1614151515610542576040517f08c379a00000000000000000000000000000000000000000000000000000000081526004018080602001828103825260248152602001807f4e65772063656f206d75737420626520646966666572656e742066726f6d202781526020017f307830270000000000000000000000000000000000000000000000000000000081525060400191505060405180910390fd5b806000806101000a81548173ffffffffffffffffffffffffffffffffffffffff021916908373ffffffffffffffffffffffffffffffffffffffff16021790555050565b60015481565b600460009054906101000a900473ffffffffffffffffffffffffffffffffffffffff1681565b6000600254905090565b6000600460149054906101000a900460ff16905090565b6000600460009054906101000a900473ffffffffffffffffffffffffffffffffffffffff16905090565b6000809054906101000a900473ffffffffffffffffffffffffffffffffffffffff1681565b600073ffffffffffffffffffffffffffffffffffffffff16600460009054906101000a900473ffffffffffffffffffffffffffffffffffffffff1673ffffffffffffffffffffffffffffffffffffffff1614151561067e57600080fd5b80600460006101000a81548173ffffffffffffffffffffffffffffffffffffffff021916908373ffffffffffffffffffffffffffffffffffffffff16021790555050565b6000600354905090565b60035481565b600460009054906101000a900473ffffffffffffffffffffffffffffffffffffffff1673ffffffffffffffffffffffffffffffffffffffff163373ffffffffffffffffffffffffffffffffffffffff1614151561072e57600080fd5b60025442101515156107a8576040517f08c379a00000000000000000000000000000000000000000000000000000000081526004018080602001828103825260188152602001807f6d7573742062652061667465722073746172742064617465000000000000000081525060200191505060405180910390fd5b6003544211151515610822576040517f08c379a00000000000000000000000000000000000000000000000000000000081526004018080602001828103825260178152602001807f6d757374206265206265666f726520656e64206461746500000000000000000081525060200191505060405180910390fd5b600460149054906101000a900460ff1615600460146101000a81548160ff021916908315150217905550565b600460149054906101000a900460ff168156fea165627a7a7230582094308d9da7b16a5ef95eb4ea03d38bcf6283311da6bb7c6f099b88026a25e6600029a165627a7a72305820e0d93100e492a4f4ef188012e88593d353e2d37da75f1f1566610f14f67140720029",
  "source": "pragma solidity ^0.5.0;\nimport './Sesame.sol';\ncontract Factory {\n    // address[] public sesames;\n    mapping(address => address[]) public ownedSesame;\n    address[] sesames;\n    \n    function createSesame(uint _startDate, uint _endDate, uint _cost) public {\n        address sesame = address(new Sesame(msg.sender, _startDate, _endDate, _cost));\n        sesames.push(sesame);\n    }\n    \n    function getAllSesameOf(address _owner) public view returns (address[] memory) {\n        return ownedSesame[_owner];\n    }\n    \n    function booking(address payable _sesame) public payable {\n        Sesame sesame = Sesame(_sesame);\n        uint value = sesame.cost();\n        require(msg.value >= value * 1 ether);\n        _sesame.transfer(msg.value);\n        sesame.booking(msg.sender);\n        ownedSesame[msg.sender].push(_sesame);\n    }\n    \n    function getAllSesames() public view returns (address[] memory) {\n        return sesames;\n    }\n    \n    function() external payable {}\n}",
  "sourcePath": "/home/tmc/workspaces/Blockchain/Sesame/contracts/Factory.sol",
  "compiler": {
    "name": "solc",
    "version": "0.5.0+commit.1d4f565a.Emscripten.clang"
  },
  "schemaVersion": "3.0.16",
  "updatedAt": "2019-10-19T07:13:52.564Z",
  "devdoc": {
    "methods": {}
  },
  "userdoc": {
    "methods": {}
  }
}