{
  "contractName": "Sesame",
  "abi": [
    {
      "constant": true,
      "inputs": [],
      "name": "startDate",
      "outputs": [
        {
          "name": "",
          "type": "uint256"
        }
      ],
      "payable": false,
      "stateMutability": "view",
      "type": "function"
    },
    {
      "constant": false,
      "inputs": [
        {
          "name": "_newOwner",
          "type": "address"
        }
      ],
      "name": "setOwner",
      "outputs": [],
      "payable": false,
      "stateMutability": "nonpayable",
      "type": "function"
    },
    {
      "constant": true,
      "inputs": [],
      "name": "cost",
      "outputs": [
        {
          "name": "",
          "type": "uint256"
        }
      ],
      "payable": false,
      "stateMutability": "view",
      "type": "function"
    },
    {
      "constant": true,
      "inputs": [],
      "name": "renter",
      "outputs": [
        {
          "name": "",
          "type": "address"
        }
      ],
      "payable": false,
      "stateMutability": "view",
      "type": "function"
    },
    {
      "constant": true,
      "inputs": [],
      "name": "ownerAddress",
      "outputs": [
        {
          "name": "",
          "type": "address"
        }
      ],
      "payable": false,
      "stateMutability": "view",
      "type": "function"
    },
    {
      "constant": true,
      "inputs": [],
      "name": "endDate",
      "outputs": [
        {
          "name": "",
          "type": "uint256"
        }
      ],
      "payable": false,
      "stateMutability": "view",
      "type": "function"
    },
    {
      "constant": true,
      "inputs": [],
      "name": "lock",
      "outputs": [
        {
          "name": "",
          "type": "bool"
        }
      ],
      "payable": false,
      "stateMutability": "view",
      "type": "function"
    },
    {
      "inputs": [
        {
          "name": "_ownerAddress",
          "type": "address"
        },
        {
          "name": "_startDate",
          "type": "uint256"
        },
        {
          "name": "_endDate",
          "type": "uint256"
        },
        {
          "name": "_cost",
          "type": "uint256"
        }
      ],
      "payable": false,
      "stateMutability": "nonpayable",
      "type": "constructor"
    },
    {
      "payable": true,
      "stateMutability": "payable",
      "type": "fallback"
    },
    {
      "constant": false,
      "inputs": [],
      "name": "changeLock",
      "outputs": [],
      "payable": false,
      "stateMutability": "nonpayable",
      "type": "function"
    },
    {
      "constant": false,
      "inputs": [
        {
          "name": "_renter",
          "type": "address"
        }
      ],
      "name": "booking",
      "outputs": [],
      "payable": true,
      "stateMutability": "payable",
      "type": "function"
    },
    {
      "constant": true,
      "inputs": [],
      "name": "getLock",
      "outputs": [
        {
          "name": "",
          "type": "bool"
        }
      ],
      "payable": false,
      "stateMutability": "view",
      "type": "function"
    },
    {
      "constant": true,
      "inputs": [],
      "name": "getRenter",
      "outputs": [
        {
          "name": "",
          "type": "address"
        }
      ],
      "payable": false,
      "stateMutability": "view",
      "type": "function"
    },
    {
      "constant": true,
      "inputs": [],
      "name": "getStartDate",
      "outputs": [
        {
          "name": "",
          "type": "uint256"
        }
      ],
      "payable": false,
      "stateMutability": "view",
      "type": "function"
    },
    {
      "constant": true,
      "inputs": [],
      "name": "getEndDate",
      "outputs": [
        {
          "name": "",
          "type": "uint256"
        }
      ],
      "payable": false,
      "stateMutability": "view",
      "type": "function"
    }
  ],
  "bytecode": "0x60806040526001600460146101000a81548160ff02191690831515021790555034801561002b57600080fd5b506040516080806109f18339810180604052608081101561004b57600080fd5b8101908080519060200190929190805190602001909291908051906020019092919080519060200190929190505050336000806101000a81548173ffffffffffffffffffffffffffffffffffffffff021916908373ffffffffffffffffffffffffffffffffffffffff160217905550836000806101000a81548173ffffffffffffffffffffffffffffffffffffffff021916908373ffffffffffffffffffffffffffffffffffffffff1602179055508260028190555081600381905550806001819055506000600460006101000a81548173ffffffffffffffffffffffffffffffffffffffff021916908373ffffffffffffffffffffffffffffffffffffffff1602179055505050505061088d806101646000396000f3fe6080604052600436106100c5576000357c0100000000000000000000000000000000000000000000000000000000900463ffffffff1680630b97bc86146100c757806313af4035146100f257806313faede6146101435780632e88ab0b1461016e57806378f305c6146101c55780637e5852d9146101f05780637f6ae7701461021f5780638f84aa0914610276578063a5a344a9146102cd578063b135648814610311578063c24a0f8b1461033c578063f07b62be14610367578063f83d08ba1461037e575b005b3480156100d357600080fd5b506100dc6103ad565b6040518082815260200191505060405180910390f35b3480156100fe57600080fd5b506101416004803603602081101561011557600080fd5b81019080803573ffffffffffffffffffffffffffffffffffffffff1690602001909291905050506103b3565b005b34801561014f57600080fd5b50610158610585565b6040518082815260200191505060405180910390f35b34801561017a57600080fd5b5061018361058b565b604051808273ffffffffffffffffffffffffffffffffffffffff1673ffffffffffffffffffffffffffffffffffffffff16815260200191505060405180910390f35b3480156101d157600080fd5b506101da6105b1565b6040518082815260200191505060405180910390f35b3480156101fc57600080fd5b506102056105bb565b604051808215151515815260200191505060405180910390f35b34801561022b57600080fd5b506102346105d2565b604051808273ffffffffffffffffffffffffffffffffffffffff1673ffffffffffffffffffffffffffffffffffffffff16815260200191505060405180910390f35b34801561028257600080fd5b5061028b6105fc565b604051808273ffffffffffffffffffffffffffffffffffffffff1673ffffffffffffffffffffffffffffffffffffffff16815260200191505060405180910390f35b61030f600480360360208110156102e357600080fd5b81019080803573ffffffffffffffffffffffffffffffffffffffff169060200190929190505050610621565b005b34801561031d57600080fd5b506103266106c2565b6040518082815260200191505060405180910390f35b34801561034857600080fd5b506103516106cc565b6040518082815260200191505060405180910390f35b34801561037357600080fd5b5061037c6106d2565b005b34801561038a57600080fd5b5061039361084e565b604051808215151515815260200191505060405180910390f35b60025481565b6000809054906101000a900473ffffffffffffffffffffffffffffffffffffffff1673ffffffffffffffffffffffffffffffffffffffff163373ffffffffffffffffffffffffffffffffffffffff16141515610477576040517f08c379a00000000000000000000000000000000000000000000000000000000081526004018080602001828103825260128152602001807f73656e646572206d7573742062652063656f000000000000000000000000000081525060200191505060405180910390fd5b600073ffffffffffffffffffffffffffffffffffffffff168173ffffffffffffffffffffffffffffffffffffffff1614151515610542576040517f08c379a00000000000000000000000000000000000000000000000000000000081526004018080602001828103825260248152602001807f4e65772063656f206d75737420626520646966666572656e742066726f6d202781526020017f307830270000000000000000000000000000000000000000000000000000000081525060400191505060405180910390fd5b806000806101000a81548173ffffffffffffffffffffffffffffffffffffffff021916908373ffffffffffffffffffffffffffffffffffffffff16021790555050565b60015481565b600460009054906101000a900473ffffffffffffffffffffffffffffffffffffffff1681565b6000600254905090565b6000600460149054906101000a900460ff16905090565b6000600460009054906101000a900473ffffffffffffffffffffffffffffffffffffffff16905090565b6000809054906101000a900473ffffffffffffffffffffffffffffffffffffffff1681565b600073ffffffffffffffffffffffffffffffffffffffff16600460009054906101000a900473ffffffffffffffffffffffffffffffffffffffff1673ffffffffffffffffffffffffffffffffffffffff1614151561067e57600080fd5b80600460006101000a81548173ffffffffffffffffffffffffffffffffffffffff021916908373ffffffffffffffffffffffffffffffffffffffff16021790555050565b6000600354905090565b60035481565b600460009054906101000a900473ffffffffffffffffffffffffffffffffffffffff1673ffffffffffffffffffffffffffffffffffffffff163373ffffffffffffffffffffffffffffffffffffffff1614151561072e57600080fd5b60025442101515156107a8576040517f08c379a00000000000000000000000000000000000000000000000000000000081526004018080602001828103825260188152602001807f6d7573742062652061667465722073746172742064617465000000000000000081525060200191505060405180910390fd5b6003544211151515610822576040517f08c379a00000000000000000000000000000000000000000000000000000000081526004018080602001828103825260178152602001807f6d757374206265206265666f726520656e64206461746500000000000000000081525060200191505060405180910390fd5b600460149054906101000a900460ff1615600460146101000a81548160ff021916908315150217905550565b600460149054906101000a900460ff168156fea165627a7a7230582094308d9da7b16a5ef95eb4ea03d38bcf6283311da6bb7c6f099b88026a25e6600029",
  "source": "pragma solidity ^0.5.0;\nimport './AccessControl.sol';\ncontract Sesame is AccessControl {\n    uint public cost;\n    uint public startDate;\n    uint public endDate;\n    address public renter;\n    // address[] lockKeeper;\n    bool public lock = true;    \n    constructor(address payable _ownerAddress, uint _startDate, uint _endDate, uint _cost) public {\n        ownerAddress = _ownerAddress;\n        startDate = _startDate;\n        endDate = _endDate;\n        cost = _cost;\n        renter = address(0x0);\n    }\n    \n    modifier unexpired() {\n        require(now >= startDate, \"must be after start date\");\n        require(now <= endDate, \"must be before end date\");\n        _;\n    }\n    \n    modifier onlyRenter() {\n        require(msg.sender == renter);\n        _;\n    }\n    \n    modifier emptyRoom() {\n        require(renter == address(0x0));\n        _;\n    }\n    \n    function changeLock() public onlyRenter() unexpired() {\n        lock = !lock;\n    }\n    \n    function booking(address _renter) public emptyRoom() payable {\n        renter = _renter;\n    }\n\n    function getLock() view public returns (bool) {\n        return lock;\n    }\n\n    function getRenter() view public returns (address) {\n        return renter;\n    }\n\n    function getStartDate() view public returns (uint) {\n        return startDate;\n    }\n\n    function getEndDate() view public returns (uint) {\n        return endDate;\n    }\n\n    function() external payable {}\n}",
  "sourcePath": "/home/tmc/workspaces/Blockchain/Sesame/contracts/Sesame.sol",
  "compiler": {
    "name": "solc",
    "version": "0.5.0+commit.1d4f565a.Emscripten.clang"
  },
  "schemaVersion": "3.0.16",
  "updatedAt": "2019-10-19T07:13:13.117Z",
  "devdoc": {
    "methods": {}
  },
  "userdoc": {
    "methods": {}
  }
}